{
  "contractName": "SimpleStorage",
  "abi": [
    {
      "inputs": [],
      "name": "storedValue",
      "outputs": [
        {
          "internalType": "uint256",
          "name": "",
          "type": "uint256"
        }
      ],
      "stateMutability": "view",
      "type": "function",
      "constant": true
    },
    {
      "inputs": [
        {
          "internalType": "uint256",
          "name": "_value",
          "type": "uint256"
        }
      ],
      "name": "setValue",
      "outputs": [],
      "stateMutability": "nonpayable",
      "type": "function"
    },
    {
      "inputs": [],
      "name": "getValue",
      "outputs": [
        {
          "internalType": "uint256",
          "name": "",
          "type": "uint256"
        }
      ],
      "stateMutability": "view",
      "type": "function",
      "constant": true
    }
  ],
  "bytecode": "0x608060405234801561001057600080fd5b5061019c806100206000396000f3fe608060405234801561001057600080fd5b506004361061005e576000357c010000000000000000000000000000000000000000000000000000000090048063209652551461006357806355241077146100815780636d619daa1461009d575b600080fd5b61006b6100bb565b60405161007891906100ed565b60405180910390f35b61009b60048036038101906100969190610139565b6100c4565b005b6100a56100ce565b6040516100b291906100ed565b60405180910390f35b60008054905090565b8060008190555050565b60005481565b6000819050919050565b6100e7816100d4565b82525050565b600060208201905061010260008301846100de565b92915050565b600080fd5b610116816100d4565b811461012157600080fd5b50565b6000813590506101338161010d565b92915050565b60006020828403121561014f5761014e610108565b5b600061015d84828501610124565b9150509291505056fea2646970667358221220a5a22dca1684c0f93ceed4dd5c3cfe7e6039d7f3faf36b983cd11d21c80c7b5164736f6c63430008140033",
  "immutableReferences": {},
  "source": "// SPDX-License-Identifier: MIT\npragma solidity ^0.8.0;\n\ncontract SimpleStorage {\n    uint256 public storedValue;\n\n    function setValue(uint256 _value) public {\n        storedValue = _value;\n    }\n\n    function getValue() public view returns (uint256) {\n        return storedValue;\n    }\n}\n",
  "sourcePath": "/Users/thilan/web-dev/humantouched/smart-contract/contracts/SimpleStorage.sol",
  "compiler": {
    "name": "solc",
    "version": "0.8.20+commit.a1b79de6.Emscripten.clang"
  },
  "schemaVersion": "3.4.16",
  "updatedAt": "2025-02-08T07:33:58.287Z",
  "networkType": "ethereum",
  "devdoc": {
    "kind": "dev",
    "methods": {},
    "version": 1
  },
  "userdoc": {
    "kind": "user",
    "methods": {},
    "version": 1
  }
}