{
  "contractName": "Token",
  "abi": [
    {
      "inputs": [
        {
          "internalType": "address",
          "name": "initialOwner",
          "type": "address"
        }
      ],
      "stateMutability": "nonpayable",
      "type": "constructor"
    },
    {
      "inputs": [],
      "name": "ERC721EnumerableForbiddenBatchMint",
      "type": "error"
    },
    {
      "inputs": [
        {
          "internalType": "address",
          "name": "sender",
          "type": "address"
        },
        {
          "internalType": "uint256",
          "name": "tokenId",
          "type": "uint256"
        },
        {
          "internalType": "address",
          "name": "owner",
          "type": "address"
        }
      ],
      "name": "ERC721IncorrectOwner",
      "type": "error"
    },
    {
      "inputs": [
        {
          "internalType": "address",
          "name": "operator",
          "type": "address"
        },
        {
          "internalType": "uint256",
          "name": "tokenId",
          "type": "uint256"
        }
      ],
      "name": "ERC721InsufficientApproval",
      "type": "error"
    },
    {
      "inputs": [
        {
          "internalType": "address",
          "name": "approver",
          "type": "address"
        }
      ],
      "name": "ERC721InvalidApprover",
      "type": "error"
    },
    {
      "inputs": [
        {
          "internalType": "address",
          "name": "operator",
          "type": "address"
        }
      ],
      "name": "ERC721InvalidOperator",
      "type": "error"
    },
    {
      "inputs": [
        {
          "internalType": "address",
          "name": "owner",
          "type": "address"
        }
      ],
      "name": "ERC721InvalidOwner",
      "type": "error"
    },
    {
      "inputs": [
        {
          "internalType": "address",
          "name": "receiver",
          "type": "address"
        }
      ],
      "name": "ERC721InvalidReceiver",
      "type": "error"
    },
    {
      "inputs": [
        {
          "internalType": "address",
          "name": "sender",
          "type": "address"
        }
      ],
      "name": "ERC721InvalidSender",
      "type": "error"
    },
    {
      "inputs": [
        {
          "internalType": "uint256",
          "name": "tokenId",
          "type": "uint256"
        }
      ],
      "name": "ERC721NonexistentToken",
      "type": "error"
    },
    {
      "inputs": [
        {
          "internalType": "address",
          "name": "owner",
          "type": "address"
        },
        {
          "internalType": "uint256",
          "name": "index",
          "type": "uint256"
        }
      ],
      "name": "ERC721OutOfBoundsIndex",
      "type": "error"
    },
    {
      "inputs": [
        {
          "internalType": "address",
          "name": "owner",
          "type": "address"
        }
      ],
      "name": "OwnableInvalidOwner",
      "type": "error"
    },
    {
      "inputs": [
        {
          "internalType": "address",
          "name": "account",
          "type": "address"
        }
      ],
      "name": "OwnableUnauthorizedAccount",
      "type": "error"
    },
    {
      "anonymous": false,
      "inputs": [
        {
          "indexed": true,
          "internalType": "address",
          "name": "owner",
          "type": "address"
        },
        {
          "indexed": true,
          "internalType": "address",
          "name": "approved",
          "type": "address"
        },
        {
          "indexed": true,
          "internalType": "uint256",
          "name": "tokenId",
          "type": "uint256"
        }
      ],
      "name": "Approval",
      "type": "event"
    },
    {
      "anonymous": false,
      "inputs": [
        {
          "indexed": true,
          "internalType": "address",
          "name": "owner",
          "type": "address"
        },
        {
          "indexed": true,
          "internalType": "address",
          "name": "operator",
          "type": "address"
        },
        {
          "indexed": false,
          "internalType": "bool",
          "name": "approved",
          "type": "bool"
        }
      ],
      "name": "ApprovalForAll",
      "type": "event"
    },
    {
      "anonymous": false,
      "inputs": [
        {
          "indexed": true,
          "internalType": "address",
          "name": "previousOwner",
          "type": "address"
        },
        {
          "indexed": true,
          "internalType": "address",
          "name": "newOwner",
          "type": "address"
        }
      ],
      "name": "OwnershipTransferred",
      "type": "event"
    },
    {
      "anonymous": false,
      "inputs": [
        {
          "indexed": true,
          "internalType": "address",
          "name": "user",
          "type": "address"
        },
        {
          "indexed": false,
          "internalType": "uint256[]",
          "name": "tokenIds",
          "type": "uint256[]"
        }
      ],
      "name": "TokensMinted",
      "type": "event"
    },
    {
      "anonymous": false,
      "inputs": [
        {
          "indexed": true,
          "internalType": "address",
          "name": "from",
          "type": "address"
        },
        {
          "indexed": true,
          "internalType": "address",
          "name": "to",
          "type": "address"
        },
        {
          "indexed": true,
          "internalType": "uint256",
          "name": "tokenId",
          "type": "uint256"
        }
      ],
      "name": "Transfer",
      "type": "event"
    },
    {
      "inputs": [
        {
          "internalType": "address",
          "name": "to",
          "type": "address"
        },
        {
          "internalType": "uint256",
          "name": "tokenId",
          "type": "uint256"
        }
      ],
      "name": "approve",
      "outputs": [],
      "stateMutability": "nonpayable",
      "type": "function"
    },
    {
      "inputs": [
        {
          "internalType": "address",
          "name": "owner",
          "type": "address"
        }
      ],
      "name": "balanceOf",
      "outputs": [
        {
          "internalType": "uint256",
          "name": "",
          "type": "uint256"
        }
      ],
      "stateMutability": "view",
      "type": "function",
      "constant": true
    },
    {
      "inputs": [
        {
          "internalType": "uint256",
          "name": "tokenId",
          "type": "uint256"
        }
      ],
      "name": "burn",
      "outputs": [],
      "stateMutability": "nonpayable",
      "type": "function"
    },
    {
      "inputs": [
        {
          "internalType": "uint256",
          "name": "tokenId",
          "type": "uint256"
        }
      ],
      "name": "getApproved",
      "outputs": [
        {
          "internalType": "address",
          "name": "",
          "type": "address"
        }
      ],
      "stateMutability": "view",
      "type": "function",
      "constant": true
    },
    {
      "inputs": [
        {
          "internalType": "address",
          "name": "owner",
          "type": "address"
        },
        {
          "internalType": "address",
          "name": "operator",
          "type": "address"
        }
      ],
      "name": "isApprovedForAll",
      "outputs": [
        {
          "internalType": "bool",
          "name": "",
          "type": "bool"
        }
      ],
      "stateMutability": "view",
      "type": "function",
      "constant": true
    },
    {
      "inputs": [],
      "name": "name",
      "outputs": [
        {
          "internalType": "string",
          "name": "",
          "type": "string"
        }
      ],
      "stateMutability": "view",
      "type": "function",
      "constant": true
    },
    {
      "inputs": [],
      "name": "owner",
      "outputs": [
        {
          "internalType": "address",
          "name": "",
          "type": "address"
        }
      ],
      "stateMutability": "view",
      "type": "function",
      "constant": true
    },
    {
      "inputs": [
        {
          "internalType": "uint256",
          "name": "tokenId",
          "type": "uint256"
        }
      ],
      "name": "ownerOf",
      "outputs": [
        {
          "internalType": "address",
          "name": "",
          "type": "address"
        }
      ],
      "stateMutability": "view",
      "type": "function",
      "constant": true
    },
    {
      "inputs": [],
      "name": "renounceOwnership",
      "outputs": [],
      "stateMutability": "nonpayable",
      "type": "function"
    },
    {
      "inputs": [
        {
          "internalType": "address",
          "name": "from",
          "type": "address"
        },
        {
          "internalType": "address",
          "name": "to",
          "type": "address"
        },
        {
          "internalType": "uint256",
          "name": "tokenId",
          "type": "uint256"
        }
      ],
      "name": "safeTransferFrom",
      "outputs": [],
      "stateMutability": "nonpayable",
      "type": "function"
    },
    {
      "inputs": [
        {
          "internalType": "address",
          "name": "from",
          "type": "address"
        },
        {
          "internalType": "address",
          "name": "to",
          "type": "address"
        },
        {
          "internalType": "uint256",
          "name": "tokenId",
          "type": "uint256"
        },
        {
          "internalType": "bytes",
          "name": "data",
          "type": "bytes"
        }
      ],
      "name": "safeTransferFrom",
      "outputs": [],
      "stateMutability": "nonpayable",
      "type": "function"
    },
    {
      "inputs": [
        {
          "internalType": "address",
          "name": "operator",
          "type": "address"
        },
        {
          "internalType": "bool",
          "name": "approved",
          "type": "bool"
        }
      ],
      "name": "setApprovalForAll",
      "outputs": [],
      "stateMutability": "nonpayable",
      "type": "function"
    },
    {
      "inputs": [],
      "name": "symbol",
      "outputs": [
        {
          "internalType": "string",
          "name": "",
          "type": "string"
        }
      ],
      "stateMutability": "view",
      "type": "function",
      "constant": true
    },
    {
      "inputs": [
        {
          "internalType": "uint256",
          "name": "index",
          "type": "uint256"
        }
      ],
      "name": "tokenByIndex",
      "outputs": [
        {
          "internalType": "uint256",
          "name": "",
          "type": "uint256"
        }
      ],
      "stateMutability": "view",
      "type": "function",
      "constant": true
    },
    {
      "inputs": [
        {
          "internalType": "address",
          "name": "owner",
          "type": "address"
        },
        {
          "internalType": "uint256",
          "name": "index",
          "type": "uint256"
        }
      ],
      "name": "tokenOfOwnerByIndex",
      "outputs": [
        {
          "internalType": "uint256",
          "name": "",
          "type": "uint256"
        }
      ],
      "stateMutability": "view",
      "type": "function",
      "constant": true
    },
    {
      "inputs": [
        {
          "internalType": "uint256",
          "name": "tokenId",
          "type": "uint256"
        }
      ],
      "name": "tokenURI",
      "outputs": [
        {
          "internalType": "string",
          "name": "",
          "type": "string"
        }
      ],
      "stateMutability": "view",
      "type": "function",
      "constant": true
    },
    {
      "inputs": [],
      "name": "totalSupply",
      "outputs": [
        {
          "internalType": "uint256",
          "name": "",
          "type": "uint256"
        }
      ],
      "stateMutability": "view",
      "type": "function",
      "constant": true
    },
    {
      "inputs": [
        {
          "internalType": "address",
          "name": "from",
          "type": "address"
        },
        {
          "internalType": "address",
          "name": "to",
          "type": "address"
        },
        {
          "internalType": "uint256",
          "name": "tokenId",
          "type": "uint256"
        }
      ],
      "name": "transferFrom",
      "outputs": [],
      "stateMutability": "nonpayable",
      "type": "function"
    },
    {
      "inputs": [
        {
          "internalType": "address",
          "name": "newOwner",
          "type": "address"
        }
      ],
      "name": "transferOwnership",
      "outputs": [],
      "stateMutability": "nonpayable",
      "type": "function"
    },
    {
      "inputs": [
        {
          "internalType": "address",
          "name": "to",
          "type": "address"
        },
        {
          "internalType": "uint256",
          "name": "tokenId",
          "type": "uint256"
        },
        {
          "internalType": "uint256",
          "name": "initValue",
          "type": "uint256"
        },
        {
          "internalType": "uint256",
          "name": "monthlyIncrementPercent",
          "type": "uint256"
        },
        {
          "internalType": "uint256",
          "name": "createdTimestamp",
          "type": "uint256"
        }
      ],
      "name": "safeMint",
      "outputs": [],
      "stateMutability": "nonpayable",
      "type": "function"
    },
    {
      "inputs": [
        {
          "internalType": "bytes4",
          "name": "interfaceId",
          "type": "bytes4"
        }
      ],
      "name": "supportsInterface",
      "outputs": [
        {
          "internalType": "bool",
          "name": "",
          "type": "bool"
        }
      ],
      "stateMutability": "view",
      "type": "function",
      "constant": true
    },
    {
      "inputs": [
        {
          "internalType": "address",
          "name": "userAccount",
          "type": "address"
        },
        {
          "internalType": "uint256",
          "name": "tokenCount",
          "type": "uint256"
        },
        {
          "internalType": "uint256",
          "name": "initValue",
          "type": "uint256"
        },
        {
          "internalType": "uint256",
          "name": "monthlyIncrementPercent",
          "type": "uint256"
        }
      ],
      "name": "mint",
      "outputs": [
        {
          "internalType": "uint256[]",
          "name": "",
          "type": "uint256[]"
        }
      ],
      "stateMutability": "nonpayable",
      "type": "function"
    }
  ],
  "bytecode": "0x60806040523480156200001157600080fd5b50604051620033d8380380620033d8833981810160405281019062000037919062000291565b806040518060400160405280600581526020017f546f6b656e0000000000000000000000000000000000000000000000000000008152506040518060400160405280600381526020017f4d544b00000000000000000000000000000000000000000000000000000000008152508160009081620000b5919062000543565b508060019081620000c7919062000543565b505050600073ffffffffffffffffffffffffffffffffffffffff168173ffffffffffffffffffffffffffffffffffffffff16036200013f5760006040517f1e4fbdf70000000000000000000000000000000000000000000000000000000081526004016200013691906200063b565b60405180910390fd5b620001598162000161640100000000026401000000009004565b505062000658565b6000600a60009054906101000a900473ffffffffffffffffffffffffffffffffffffffff16905081600a60006101000a81548173ffffffffffffffffffffffffffffffffffffffff021916908373ffffffffffffffffffffffffffffffffffffffff1602179055508173ffffffffffffffffffffffffffffffffffffffff168173ffffffffffffffffffffffffffffffffffffffff167f8be0079c531659141344cd1fd0a4f28419497f9722a3daafe3b4186f6b6457e060405160405180910390a35050565b600080fd5b600073ffffffffffffffffffffffffffffffffffffffff82169050919050565b600062000259826200022c565b9050919050565b6200026b816200024c565b81146200027757600080fd5b50565b6000815190506200028b8162000260565b92915050565b600060208284031215620002aa57620002a962000227565b5b6000620002ba848285016200027a565b91505092915050565b600081519050919050565b7f4e487b7100000000000000000000000000000000000000000000000000000000600052604160045260246000fd5b7f4e487b7100000000000000000000000000000000000000000000000000000000600052602260045260246000fd5b600060028204905060018216806200034557607f821691505b6020821081036200035b576200035a620002fd565b5b50919050565b60008190508160005260206000209050919050565b60006020601f8301049050919050565b60008160020a8302905092915050565b600060088302620003c87fffffffffffffffffffffffffffffffffffffffffffffffffffffffffffffffff8262000386565b620003d4868362000386565b95508019841693508086168417925050509392505050565b6000819050919050565b6000819050919050565b6000620004216200041b6200041584620003ec565b620003f6565b620003ec565b9050919050565b6000819050919050565b6200043d8362000400565b620004556200044c8262000428565b84845462000396565b825550505050565b600090565b6200046c6200045d565b6200047981848462000432565b505050565b5b81811015620004a1576200049560008262000462565b6001810190506200047f565b5050565b601f821115620004f057620004ba8162000361565b620004c58462000376565b81016020851015620004d5578190505b620004ed620004e48562000376565b8301826200047e565b50505b505050565b60008160020a8304905092915050565b60006200051860001984600802620004f5565b1980831691505092915050565b600062000533838362000505565b9150826002028217905092915050565b6200054e82620002c3565b67ffffffffffffffff8111156200056a5762000569620002ce565b5b6200057682546200032c565b62000583828285620004a5565b600060209050601f831160018114620005bb5760008415620005a6578287015190505b620005b2858262000525565b86555062000622565b601f198416620005cb8662000361565b60005b82811015620005f557848901518255600182019150602085019450602081019050620005ce565b8683101562000615578489015162000611601f89168262000505565b8355505b6001600288020188555050505b505050505050565b62000635816200024c565b82525050565b60006020820190506200065260008301846200062a565b92915050565b612d7080620006686000396000f3fe608060405234801561001057600080fd5b506004361061015f576000357c0100000000000000000000000000000000000000000000000000000000900480636352211e116100d5578063a22cb46511610099578063a22cb46514610392578063a647e8ec146103ae578063b88d4fde146103de578063c87b56dd146103fa578063e985e9c51461042a578063f2fde38b1461045a5761015f565b80636352211e146102ec57806370a082311461031c578063715018a61461034c5780638da5cb5b1461035657806395d89b41146103745761015f565b806323b872dd1161012757806323b872dd1461021c5780632f745c591461023857806342842e0e1461026857806342966c68146102845780634f6ccce7146102a05780635c2517e5146102d05761015f565b806301ffc9a71461016457806306fdde0314610194578063081812fc146101b2578063095ea7b3146101e257806318160ddd146101fe575b600080fd5b61017e600480360381019061017991906121d1565b610476565b60405161018b9190612219565b60405180910390f35b61019c610488565b6040516101a991906122c4565b60405180910390f35b6101cc60048036038101906101c7919061231c565b61051a565b6040516101d9919061238a565b60405180910390f35b6101fc60048036038101906101f791906123d1565b610536565b005b61020661054c565b6040516102139190612420565b60405180910390f35b6102366004803603810190610231919061243b565b610559565b005b610252600480360381019061024d91906123d1565b61065b565b60405161025f9190612420565b60405180910390f35b610282600480360381019061027d919061243b565b610704565b005b61029e6004803603810190610299919061231c565b610724565b005b6102ba60048036038101906102b5919061231c565b61073b565b6040516102c79190612420565b60405180910390f35b6102ea60048036038101906102e5919061248e565b6107b1565b005b6103066004803603810190610301919061231c565b610812565b604051610313919061238a565b60405180910390f35b61033660048036038101906103319190612509565b610824565b6040516103439190612420565b60405180910390f35b6103546108de565b005b61035e6108f2565b60405161036b919061238a565b60405180910390f35b61037c61091c565b60405161038991906122c4565b60405180910390f35b6103ac60048036038101906103a79190612562565b6109ae565b005b6103c860048036038101906103c391906125a2565b6109c4565b6040516103d591906126c7565b60405180910390f35b6103f860048036038101906103f3919061281e565b610b30565b005b610414600480360381019061040f919061231c565b610b4d565b60405161042191906122c4565b60405180910390f35b610444600480360381019061043f91906128a1565b610bb6565b6040516104519190612219565b60405180910390f35b610474600480360381019061046f9190612509565b610c4a565b005b600061048182610cd0565b9050919050565b60606000805461049790612910565b80601f01602080910402602001604051908101604052809291908181526020018280546104c390612910565b80156105105780601f106104e557610100808354040283529160200191610510565b820191906000526020600020905b8154815290600101906020018083116104f357829003601f168201915b5050505050905090565b600061052582610d4a565b5061052f82610dd2565b9050919050565b6105488282610543610e0f565b610e17565b5050565b6000600880549050905090565b600073ffffffffffffffffffffffffffffffffffffffff168273ffffffffffffffffffffffffffffffffffffffff16036105cb5760006040517f64a0ae920000000000000000000000000000000000000000000000000000000081526004016105c2919061238a565b60405180910390fd5b60006105df83836105da610e0f565b610e29565b90508373ffffffffffffffffffffffffffffffffffffffff168173ffffffffffffffffffffffffffffffffffffffff1614610655578382826040517f64283d7b00000000000000000000000000000000000000000000000000000000815260040161064c93929190612941565b60405180910390fd5b50505050565b600061066683610824565b82106106ab5782826040517fa57d13dc0000000000000000000000000000000000000000000000000000000081526004016106a2929190612978565b60405180910390fd5b600660008473ffffffffffffffffffffffffffffffffffffffff1673ffffffffffffffffffffffffffffffffffffffff168152602001908152602001600020600083815260200190815260200160002054905092915050565b61071f83838360405180602001604052806000815250610b30565b505050565b610737600082610732610e0f565b610e29565b5050565b600061074561054c565b821061078b576000826040517fa57d13dc000000000000000000000000000000000000000000000000000000008152600401610782929190612978565b60405180910390fd5b6008828154811061079f5761079e6129a1565b5b90600052602060002001549050919050565b6107b9610e3f565b6107c38585610ec6565b82600b60008681526020019081526020016000208190555081600c60008681526020019081526020016000208190555080600d6000868152602001908152602001600020819055505050505050565b600061081d82610d4a565b9050919050565b60008073ffffffffffffffffffffffffffffffffffffffff168273ffffffffffffffffffffffffffffffffffffffff16036108975760006040517f89c62b6400000000000000000000000000000000000000000000000000000000815260040161088e919061238a565b60405180910390fd5b600360008373ffffffffffffffffffffffffffffffffffffffff1673ffffffffffffffffffffffffffffffffffffffff168152602001908152602001600020549050919050565b6108e6610e3f565b6108f06000610ee4565b565b6000600a60009054906101000a900473ffffffffffffffffffffffffffffffffffffffff16905090565b60606001805461092b90612910565b80601f016020809104026020016040519081016040528092919081815260200182805461095790612910565b80156109a45780601f10610979576101008083540402835291602001916109a4565b820191906000526020600020905b81548152906001019060200180831161098757829003601f168201915b5050505050905090565b6109c06109b9610e0f565b8383610faa565b5050565b606060008311610a09576040517f08c379a0000000000000000000000000000000000000000000000000000000008152600401610a0090612a1c565b60405180910390fd5b60008467ffffffffffffffff811115610a2557610a246126f3565b5b604051908082528060200260200182016040528015610a535781602001602082028036833780820191505090505b50905060005b85811015610ad5576000423383604051602001610a7893929190612ab1565b60405160208183030381529060405280519060200120600190049050610aa188828888426107b1565b80838381518110610ab557610ab46129a1565b5b602002602001018181525050508080610acd90612b1d565b915050610a59565b508573ffffffffffffffffffffffffffffffffffffffff167fdb153ff9f24a951da56cac1fbfe269594c12911bb4b97c3ce2b6a60ab9fbb9e282604051610b1c91906126c7565b60405180910390a280915050949350505050565b610b3b848484610559565b610b4784848484611119565b50505050565b6060610b5882610d4a565b506000610b63611308565b90506000815111610b835760405180602001604052806000815250610bae565b80610b8d8461131f565b604051602001610b9e929190612ba1565b6040516020818303038152906040525b915050919050565b6000600560008473ffffffffffffffffffffffffffffffffffffffff1673ffffffffffffffffffffffffffffffffffffffff16815260200190815260200160002060008373ffffffffffffffffffffffffffffffffffffffff1673ffffffffffffffffffffffffffffffffffffffff16815260200190815260200160002060009054906101000a900460ff16905092915050565b610c52610e3f565b600073ffffffffffffffffffffffffffffffffffffffff168173ffffffffffffffffffffffffffffffffffffffff1603610cc45760006040517f1e4fbdf7000000000000000000000000000000000000000000000000000000008152600401610cbb919061238a565b60405180910390fd5b610ccd81610ee4565b50565b60007f780e9d63000000000000000000000000000000000000000000000000000000007bffffffffffffffffffffffffffffffffffffffffffffffffffffffff1916827bffffffffffffffffffffffffffffffffffffffffffffffffffffffff19161480610d435750610d42826113ed565b5b9050919050565b600080610d56836114cf565b9050600073ffffffffffffffffffffffffffffffffffffffff168173ffffffffffffffffffffffffffffffffffffffff1603610dc957826040517f7e273289000000000000000000000000000000000000000000000000000000008152600401610dc09190612420565b60405180910390fd5b80915050919050565b60006004600083815260200190815260200160002060009054906101000a900473ffffffffffffffffffffffffffffffffffffffff169050919050565b600033905090565b610e24838383600161150c565b505050565b6000610e368484846116d1565b90509392505050565b610e47610e0f565b73ffffffffffffffffffffffffffffffffffffffff16610e656108f2565b73ffffffffffffffffffffffffffffffffffffffff1614610ec457610e88610e0f565b6040517f118cdaa7000000000000000000000000000000000000000000000000000000008152600401610ebb919061238a565b60405180910390fd5b565b610ee08282604051806020016040528060008152506117ee565b5050565b6000600a60009054906101000a900473ffffffffffffffffffffffffffffffffffffffff16905081600a60006101000a81548173ffffffffffffffffffffffffffffffffffffffff021916908373ffffffffffffffffffffffffffffffffffffffff1602179055508173ffffffffffffffffffffffffffffffffffffffff168173ffffffffffffffffffffffffffffffffffffffff167f8be0079c531659141344cd1fd0a4f28419497f9722a3daafe3b4186f6b6457e060405160405180910390a35050565b600073ffffffffffffffffffffffffffffffffffffffff168273ffffffffffffffffffffffffffffffffffffffff160361101b57816040517f5b08ba18000000000000000000000000000000000000000000000000000000008152600401611012919061238a565b60405180910390fd5b80600560008573ffffffffffffffffffffffffffffffffffffffff1673ffffffffffffffffffffffffffffffffffffffff16815260200190815260200160002060008473ffffffffffffffffffffffffffffffffffffffff1673ffffffffffffffffffffffffffffffffffffffff16815260200190815260200160002060006101000a81548160ff0219169083151502179055508173ffffffffffffffffffffffffffffffffffffffff168373ffffffffffffffffffffffffffffffffffffffff167f17307eab39ab6107e8899845ad3d59bd9653f200f220920489ca2b5937696c318360405161110c9190612219565b60405180910390a3505050565b60008373ffffffffffffffffffffffffffffffffffffffff163b1115611302578273ffffffffffffffffffffffffffffffffffffffff1663150b7a0261115d610e0f565b8685856040518563ffffffff167c010000000000000000000000000000000000000000000000000000000002815260040161119b9493929190612c1a565b6020604051808303816000875af19250505080156111d757506040513d601f19601f820116820180604052508101906111d49190612c7b565b60015b61125b573d8060008114611207576040519150601f19603f3d011682016040523d82523d6000602084013e61120c565b606091505b50600081510361125357836040517f64a0ae9200000000000000000000000000000000000000000000000000000000815260040161124a919061238a565b60405180910390fd5b805181602001fd5b63150b7a027c0100000000000000000000000000000000000000000000000000000000027bffffffffffffffffffffffffffffffffffffffffffffffffffffffff1916817bffffffffffffffffffffffffffffffffffffffffffffffffffffffff19161461130057836040517f64a0ae920000000000000000000000000000000000000000000000000000000081526004016112f7919061238a565b60405180910390fd5b505b50505050565b606060405180602001604052806000815250905090565b60606000600161132e8461180a565b01905060008167ffffffffffffffff81111561134d5761134c6126f3565b5b6040519080825280601f01601f19166020018201604052801561137f5781602001600182028036833780820191505090505b509050600082602001820190505b6001156113e2578080600190039150507f3031323334353637383961626364656600000000000000000000000000000000600a86061a8153600a85816113d6576113d5612ca8565b5b0494506000850361138d575b819350505050919050565b60007f80ac58cd000000000000000000000000000000000000000000000000000000007bffffffffffffffffffffffffffffffffffffffffffffffffffffffff1916827bffffffffffffffffffffffffffffffffffffffffffffffffffffffff191614806114b857507f5b5e139f000000000000000000000000000000000000000000000000000000007bffffffffffffffffffffffffffffffffffffffffffffffffffffffff1916827bffffffffffffffffffffffffffffffffffffffffffffffffffffffff1916145b806114c857506114c78261195d565b5b9050919050565b60006002600083815260200190815260200160002060009054906101000a900473ffffffffffffffffffffffffffffffffffffffff169050919050565b80806115455750600073ffffffffffffffffffffffffffffffffffffffff168273ffffffffffffffffffffffffffffffffffffffff1614155b1561167957600061155584610d4a565b9050600073ffffffffffffffffffffffffffffffffffffffff168373ffffffffffffffffffffffffffffffffffffffff16141580156115c057508273ffffffffffffffffffffffffffffffffffffffff168173ffffffffffffffffffffffffffffffffffffffff1614155b80156115d357506115d18184610bb6565b155b1561161557826040517fa9fbf51f00000000000000000000000000000000000000000000000000000000815260040161160c919061238a565b60405180910390fd5b811561167757838573ffffffffffffffffffffffffffffffffffffffff168273ffffffffffffffffffffffffffffffffffffffff167f8c5be1e5ebec7d5bd14f71427d1e84f3dd0314c0f7b2291e5b200ac8c7c3b92560405160405180910390a45b505b836004600085815260200190815260200160002060006101000a81548173ffffffffffffffffffffffffffffffffffffffff021916908373ffffffffffffffffffffffffffffffffffffffff16021790555050505050565b6000806116df8585856119c7565b9050600073ffffffffffffffffffffffffffffffffffffffff168173ffffffffffffffffffffffffffffffffffffffff16036117235761171e84611be1565b611762565b8473ffffffffffffffffffffffffffffffffffffffff168173ffffffffffffffffffffffffffffffffffffffff1614611761576117608185611c2a565b5b5b600073ffffffffffffffffffffffffffffffffffffffff168573ffffffffffffffffffffffffffffffffffffffff16036117a45761179f84611d8b565b6117e3565b8473ffffffffffffffffffffffffffffffffffffffff168173ffffffffffffffffffffffffffffffffffffffff16146117e2576117e18585611e5c565b5b5b809150509392505050565b6117f88383611ee7565b6118056000848484611119565b505050565b600080600090507a184f03e93ff9f4daa797ed6e38ed64bf6a1f0100000000000000008310611868577a184f03e93ff9f4daa797ed6e38ed64bf6a1f010000000000000000838161185e5761185d612ca8565b5b0492506040810190505b6d04ee2d6d415b85acef810000000083106118a5576d04ee2d6d415b85acef8100000000838161189b5761189a612ca8565b5b0492506020810190505b662386f26fc1000083106118d457662386f26fc1000083816118ca576118c9612ca8565b5b0492506010810190505b6305f5e10083106118fd576305f5e10083816118f3576118f2612ca8565b5b0492506008810190505b612710831061192257612710838161191857611917612ca8565b5b0492506004810190505b60648310611945576064838161193b5761193a612ca8565b5b0492506002810190505b600a8310611954576001810190505b80915050919050565b60007f01ffc9a7000000000000000000000000000000000000000000000000000000007bffffffffffffffffffffffffffffffffffffffffffffffffffffffff1916827bffffffffffffffffffffffffffffffffffffffffffffffffffffffff1916149050919050565b6000806119d3846114cf565b9050600073ffffffffffffffffffffffffffffffffffffffff168373ffffffffffffffffffffffffffffffffffffffff1614611a1557611a14818486611fe0565b5b600073ffffffffffffffffffffffffffffffffffffffff168173ffffffffffffffffffffffffffffffffffffffff1614611aa657611a5760008560008061150c565b6001600360008373ffffffffffffffffffffffffffffffffffffffff1673ffffffffffffffffffffffffffffffffffffffff168152602001908152602001600020600082825403925050819055505b600073ffffffffffffffffffffffffffffffffffffffff168573ffffffffffffffffffffffffffffffffffffffff1614611b29576001600360008773ffffffffffffffffffffffffffffffffffffffff1673ffffffffffffffffffffffffffffffffffffffff168152602001908152602001600020600082825401925050819055505b846002600086815260200190815260200160002060006101000a81548173ffffffffffffffffffffffffffffffffffffffff021916908373ffffffffffffffffffffffffffffffffffffffff160217905550838573ffffffffffffffffffffffffffffffffffffffff168273ffffffffffffffffffffffffffffffffffffffff167fddf252ad1be2c89b69c2b068fc378daa952ba7f163c4a11628f55a4df523b3ef60405160405180910390a4809150509392505050565b6008805490506009600083815260200190815260200160002081905550600881908060018154018082558091505060019003906000526020600020016000909190919091505550565b6000611c3583610824565b9050600060076000848152602001908152602001600020549050818114611d1a576000600660008673ffffffffffffffffffffffffffffffffffffffff1673ffffffffffffffffffffffffffffffffffffffff168152602001908152602001600020600084815260200190815260200160002054905080600660008773ffffffffffffffffffffffffffffffffffffffff1673ffffffffffffffffffffffffffffffffffffffff168152602001908152602001600020600084815260200190815260200160002081905550816007600083815260200190815260200160002081905550505b6007600084815260200190815260200160002060009055600660008573ffffffffffffffffffffffffffffffffffffffff1673ffffffffffffffffffffffffffffffffffffffff16815260200190815260200160002060008381526020019081526020016000206000905550505050565b60006001600880549050611d9f9190612cd7565b9050600060096000848152602001908152602001600020549050600060088381548110611dcf57611dce6129a1565b5b906000526020600020015490508060088381548110611df157611df06129a1565b5b906000526020600020018190555081600960008381526020019081526020016000208190555060096000858152602001908152602001600020600090556008805480611e4057611e3f612d0b565b5b6001900381819060005260206000200160009055905550505050565b60006001611e6984610824565b611e739190612cd7565b905081600660008573ffffffffffffffffffffffffffffffffffffffff1673ffffffffffffffffffffffffffffffffffffffff168152602001908152602001600020600083815260200190815260200160002081905550806007600084815260200190815260200160002081905550505050565b600073ffffffffffffffffffffffffffffffffffffffff168273ffffffffffffffffffffffffffffffffffffffff1603611f595760006040517f64a0ae92000000000000000000000000000000000000000000000000000000008152600401611f50919061238a565b60405180910390fd5b6000611f6783836000610e29565b9050600073ffffffffffffffffffffffffffffffffffffffff168173ffffffffffffffffffffffffffffffffffffffff1614611fdb5760006040517f73c6ac6e000000000000000000000000000000000000000000000000000000008152600401611fd2919061238a565b60405180910390fd5b505050565b611feb8383836120a4565b61209f57600073ffffffffffffffffffffffffffffffffffffffff168373ffffffffffffffffffffffffffffffffffffffff160361206057806040517f7e2732890000000000000000000000000000000000000000000000000000000081526004016120579190612420565b60405180910390fd5b81816040517f177e802f000000000000000000000000000000000000000000000000000000008152600401612096929190612978565b60405180910390fd5b505050565b60008073ffffffffffffffffffffffffffffffffffffffff168373ffffffffffffffffffffffffffffffffffffffff161415801561215c57508273ffffffffffffffffffffffffffffffffffffffff168473ffffffffffffffffffffffffffffffffffffffff16148061211d575061211c8484610bb6565b5b8061215b57508273ffffffffffffffffffffffffffffffffffffffff1661214383610dd2565b73ffffffffffffffffffffffffffffffffffffffff16145b5b90509392505050565b6000604051905090565b600080fd5b600080fd5b60007fffffffff0000000000000000000000000000000000000000000000000000000082169050919050565b6121ae81612179565b81146121b957600080fd5b50565b6000813590506121cb816121a5565b92915050565b6000602082840312156121e7576121e661216f565b5b60006121f5848285016121bc565b91505092915050565b60008115159050919050565b612213816121fe565b82525050565b600060208201905061222e600083018461220a565b92915050565b600081519050919050565b600082825260208201905092915050565b60005b8381101561226e578082015181840152602081019050612253565b60008484015250505050565b6000601f19601f8301169050919050565b600061229682612234565b6122a0818561223f565b93506122b0818560208601612250565b6122b98161227a565b840191505092915050565b600060208201905081810360008301526122de818461228b565b905092915050565b6000819050919050565b6122f9816122e6565b811461230457600080fd5b50565b600081359050612316816122f0565b92915050565b6000602082840312156123325761233161216f565b5b600061234084828501612307565b91505092915050565b600073ffffffffffffffffffffffffffffffffffffffff82169050919050565b600061237482612349565b9050919050565b61238481612369565b82525050565b600060208201905061239f600083018461237b565b92915050565b6123ae81612369565b81146123b957600080fd5b50565b6000813590506123cb816123a5565b92915050565b600080604083850312156123e8576123e761216f565b5b60006123f6858286016123bc565b925050602061240785828601612307565b9150509250929050565b61241a816122e6565b82525050565b60006020820190506124356000830184612411565b92915050565b6000806000606084860312156124545761245361216f565b5b6000612462868287016123bc565b9350506020612473868287016123bc565b925050604061248486828701612307565b9150509250925092565b600080600080600060a086880312156124aa576124a961216f565b5b60006124b8888289016123bc565b95505060206124c988828901612307565b94505060406124da88828901612307565b93505060606124eb88828901612307565b92505060806124fc88828901612307565b9150509295509295909350565b60006020828403121561251f5761251e61216f565b5b600061252d848285016123bc565b91505092915050565b61253f816121fe565b811461254a57600080fd5b50565b60008135905061255c81612536565b92915050565b600080604083850312156125795761257861216f565b5b6000612587858286016123bc565b92505060206125988582860161254d565b9150509250929050565b600080600080608085870312156125bc576125bb61216f565b5b60006125ca878288016123bc565b94505060206125db87828801612307565b93505060406125ec87828801612307565b92505060606125fd87828801612307565b91505092959194509250565b600081519050919050565b600082825260208201905092915050565b6000819050602082019050919050565b61263e816122e6565b82525050565b60006126508383612635565b60208301905092915050565b6000602082019050919050565b600061267482612609565b61267e8185612614565b935061268983612625565b8060005b838110156126ba5781516126a18882612644565b97506126ac8361265c565b92505060018101905061268d565b5085935050505092915050565b600060208201905081810360008301526126e18184612669565b905092915050565b600080fd5b600080fd5b7f4e487b7100000000000000000000000000000000000000000000000000000000600052604160045260246000fd5b61272b8261227a565b810181811067ffffffffffffffff8211171561274a576127496126f3565b5b80604052505050565b600061275d612165565b90506127698282612722565b919050565b600067ffffffffffffffff821115612789576127886126f3565b5b6127928261227a565b9050602081019050919050565b82818337600083830152505050565b60006127c16127bc8461276e565b612753565b9050828152602081018484840111156127dd576127dc6126ee565b5b6127e884828561279f565b509392505050565b600082601f830112612805576128046126e9565b5b81356128158482602086016127ae565b91505092915050565b600080600080608085870312156128385761283761216f565b5b6000612846878288016123bc565b9450506020612857878288016123bc565b935050604061286887828801612307565b925050606085013567ffffffffffffffff81111561288957612888612174565b5b612895878288016127f0565b91505092959194509250565b600080604083850312156128b8576128b761216f565b5b60006128c6858286016123bc565b92505060206128d7858286016123bc565b9150509250929050565b7f4e487b7100000000000000000000000000000000000000000000000000000000600052602260045260246000fd5b6000600282049050600182168061292857607f821691505b60208210810361293b5761293a6128e1565b5b50919050565b6000606082019050612956600083018661237b565b6129636020830185612411565b612970604083018461237b565b949350505050565b600060408201905061298d600083018561237b565b61299a6020830184612411565b9392505050565b7f4e487b7100000000000000000000000000000000000000000000000000000000600052603260045260246000fd5b7f56616c7565206d7573742062652067726561746572207468616e203000000000600082015250565b6000612a06601c8361223f565b9150612a11826129d0565b602082019050919050565b60006020820190508181036000830152612a35816129f9565b9050919050565b6000819050919050565b612a57612a52826122e6565b612a3c565b82525050565b60006c0100000000000000000000000082029050919050565b6000612a8182612a5d565b9050919050565b6000612a9382612a76565b9050919050565b612aab612aa682612369565b612a88565b82525050565b6000612abd8286612a46565b602082019150612acd8285612a9a565b601482019150612add8284612a46565b602082019150819050949350505050565b7f4e487b7100000000000000000000000000000000000000000000000000000000600052601160045260246000fd5b6000612b28826122e6565b91507fffffffffffffffffffffffffffffffffffffffffffffffffffffffffffffffff8203612b5a57612b59612aee565b5b600182019050919050565b600081905092915050565b6000612b7b82612234565b612b858185612b65565b9350612b95818560208601612250565b80840191505092915050565b6000612bad8285612b70565b9150612bb98284612b70565b91508190509392505050565b600081519050919050565b600082825260208201905092915050565b6000612bec82612bc5565b612bf68185612bd0565b9350612c06818560208601612250565b612c0f8161227a565b840191505092915050565b6000608082019050612c2f600083018761237b565b612c3c602083018661237b565b612c496040830185612411565b8181036060830152612c5b8184612be1565b905095945050505050565b600081519050612c75816121a5565b92915050565b600060208284031215612c9157612c9061216f565b5b6000612c9f84828501612c66565b91505092915050565b7f4e487b7100000000000000000000000000000000000000000000000000000000600052601260045260246000fd5b6000612ce2826122e6565b9150612ced836122e6565b9250828203905081811115612d0557612d04612aee565b5b92915050565b7f4e487b7100000000000000000000000000000000000000000000000000000000600052603160045260246000fdfea2646970667358221220f8b4e54ce3f9e63c6fc375805d0ef18fdc27bf02fbd311a03662d211c42540f264736f6c63430008140033",
  "immutableReferences": {},
  "source": "// SPDX-License-Identifier: MIT\npragma solidity ^0.8.20;\n\nimport {Ownable} from \"@openzeppelin/contracts/access/Ownable.sol\";\nimport {ERC721Burnable} from \"@openzeppelin/contracts/token/ERC721/extensions/ERC721Burnable.sol\";\nimport {ERC721, ERC721Enumerable} from \"@openzeppelin/contracts/token/ERC721/extensions/ERC721Enumerable.sol\";\n\ncontract Token is ERC721, ERC721Enumerable, ERC721Burnable, Ownable {\n    constructor(\n        address initialOwner\n    ) ERC721(\"Token\", \"MTK\") Ownable(initialOwner) {}\n\n    //Events\n    event TokensMinted(address indexed user, uint[] tokenIds);\n\n    //Storage variables\n    mapping(uint256 => uint) private _initValue;\n    mapping(uint256 => uint) private _monthlyIncrementPercent;\n    mapping(uint256 => uint256) private _createdTimestamp;\n\n    function safeMint(\n        address to,\n        uint256 tokenId,\n        uint initValue,\n        uint monthlyIncrementPercent,\n        uint256 createdTimestamp\n    ) public onlyOwner {\n        _safeMint(to, tokenId);\n\n        _initValue[tokenId] = initValue;\n        _monthlyIncrementPercent[tokenId] = monthlyIncrementPercent;\n        _createdTimestamp[tokenId] = createdTimestamp;\n    }\n\n    function supportsInterface(\n        bytes4 interfaceId\n    ) public view override(ERC721, ERC721Enumerable) returns (bool) {\n        return super.supportsInterface(interfaceId);\n    }\n\n    function mint(\n        address userAccount,\n        uint tokenCount,\n        uint initValue,\n        uint monthlyIncrementPercent\n    ) external returns (uint[] memory) {\n        require(initValue > 0, \"Value must be greater than 0\");\n\n        uint[] memory mintedTokenIds = new uint[](tokenCount);\n\n        for (uint i = 0; i < tokenCount; i++) {\n            uint256 _tokenId = uint256(\n                keccak256(abi.encodePacked(block.timestamp, msg.sender, i))\n            );\n\n            safeMint(\n                userAccount,\n                _tokenId,\n                initValue,\n                monthlyIncrementPercent,\n                block.timestamp\n            );\n            mintedTokenIds[i] = _tokenId;\n        }\n        emit TokensMinted(userAccount, mintedTokenIds);\n\n        return mintedTokenIds;\n    }\n\n    //Overided methods\n    function _update(\n        address to,\n        uint256 tokenId,\n        address auth\n    ) internal override(ERC721, ERC721Enumerable) returns (address) {\n        return super._update(to, tokenId, auth);\n    }\n\n    function _increaseBalance(\n        address account,\n        uint128 value\n    ) internal override(ERC721, ERC721Enumerable) {\n        super._increaseBalance(account, value);\n    }\n}\n",
  "sourcePath": "/Users/thilan/web-dev/fyp/smart-contract/contracts/Token.sol",
  "compiler": {
    "name": "solc",
    "version": "0.8.20+commit.a1b79de6.Emscripten.clang"
  },
  "schemaVersion": "3.4.16",
  "updatedAt": "2024-06-11T19:38:28.030Z",
  "networkType": "ethereum",
  "devdoc": {
    "errors": {
      "ERC721EnumerableForbiddenBatchMint()": [
        {
          "details": "Batch mint is not allowed."
        }
      ],
      "ERC721IncorrectOwner(address,uint256,address)": [
        {
          "details": "Indicates an error related to the ownership over a particular token. Used in transfers.",
          "params": {
            "owner": "Address of the current owner of a token.",
            "sender": "Address whose tokens are being transferred.",
            "tokenId": "Identifier number of a token."
          }
        }
      ],
      "ERC721InsufficientApproval(address,uint256)": [
        {
          "details": "Indicates a failure with the `operator`s approval. Used in transfers.",
          "params": {
            "operator": "Address that may be allowed to operate on tokens without being their owner.",
            "tokenId": "Identifier number of a token."
          }
        }
      ],
      "ERC721InvalidApprover(address)": [
        {
          "details": "Indicates a failure with the `approver` of a token to be approved. Used in approvals.",
          "params": {
            "approver": "Address initiating an approval operation."
          }
        }
      ],
      "ERC721InvalidOperator(address)": [
        {
          "details": "Indicates a failure with the `operator` to be approved. Used in approvals.",
          "params": {
            "operator": "Address that may be allowed to operate on tokens without being their owner."
          }
        }
      ],
      "ERC721InvalidOwner(address)": [
        {
          "details": "Indicates that an address can't be an owner. For example, `address(0)` is a forbidden owner in EIP-20. Used in balance queries.",
          "params": {
            "owner": "Address of the current owner of a token."
          }
        }
      ],
      "ERC721InvalidReceiver(address)": [
        {
          "details": "Indicates a failure with the token `receiver`. Used in transfers.",
          "params": {
            "receiver": "Address to which tokens are being transferred."
          }
        }
      ],
      "ERC721InvalidSender(address)": [
        {
          "details": "Indicates a failure with the token `sender`. Used in transfers.",
          "params": {
            "sender": "Address whose tokens are being transferred."
          }
        }
      ],
      "ERC721NonexistentToken(uint256)": [
        {
          "details": "Indicates a `tokenId` whose `owner` is the zero address.",
          "params": {
            "tokenId": "Identifier number of a token."
          }
        }
      ],
      "ERC721OutOfBoundsIndex(address,uint256)": [
        {
          "details": "An `owner`'s token query was out of bounds for `index`. NOTE: The owner being `address(0)` indicates a global out of bounds index."
        }
      ],
      "OwnableInvalidOwner(address)": [
        {
          "details": "The owner is not a valid owner account. (eg. `address(0)`)"
        }
      ],
      "OwnableUnauthorizedAccount(address)": [
        {
          "details": "The caller account is not authorized to perform an operation."
        }
      ]
    },
    "events": {
      "Approval(address,address,uint256)": {
        "details": "Emitted when `owner` enables `approved` to manage the `tokenId` token."
      },
      "ApprovalForAll(address,address,bool)": {
        "details": "Emitted when `owner` enables or disables (`approved`) `operator` to manage all of its assets."
      },
      "Transfer(address,address,uint256)": {
        "details": "Emitted when `tokenId` token is transferred from `from` to `to`."
      }
    },
    "kind": "dev",
    "methods": {
      "approve(address,uint256)": {
        "details": "See {IERC721-approve}."
      },
      "balanceOf(address)": {
        "details": "See {IERC721-balanceOf}."
      },
      "burn(uint256)": {
        "details": "Burns `tokenId`. See {ERC721-_burn}. Requirements: - The caller must own `tokenId` or be an approved operator."
      },
      "getApproved(uint256)": {
        "details": "See {IERC721-getApproved}."
      },
      "isApprovedForAll(address,address)": {
        "details": "See {IERC721-isApprovedForAll}."
      },
      "name()": {
        "details": "See {IERC721Metadata-name}."
      },
      "owner()": {
        "details": "Returns the address of the current owner."
      },
      "ownerOf(uint256)": {
        "details": "See {IERC721-ownerOf}."
      },
      "renounceOwnership()": {
        "details": "Leaves the contract without owner. It will not be possible to call `onlyOwner` functions. Can only be called by the current owner. NOTE: Renouncing ownership will leave the contract without an owner, thereby disabling any functionality that is only available to the owner."
      },
      "safeTransferFrom(address,address,uint256)": {
        "details": "See {IERC721-safeTransferFrom}."
      },
      "safeTransferFrom(address,address,uint256,bytes)": {
        "details": "See {IERC721-safeTransferFrom}."
      },
      "setApprovalForAll(address,bool)": {
        "details": "See {IERC721-setApprovalForAll}."
      },
      "symbol()": {
        "details": "See {IERC721Metadata-symbol}."
      },
      "tokenByIndex(uint256)": {
        "details": "See {IERC721Enumerable-tokenByIndex}."
      },
      "tokenOfOwnerByIndex(address,uint256)": {
        "details": "See {IERC721Enumerable-tokenOfOwnerByIndex}."
      },
      "tokenURI(uint256)": {
        "details": "See {IERC721Metadata-tokenURI}."
      },
      "totalSupply()": {
        "details": "See {IERC721Enumerable-totalSupply}."
      },
      "transferFrom(address,address,uint256)": {
        "details": "See {IERC721-transferFrom}."
      },
      "transferOwnership(address)": {
        "details": "Transfers ownership of the contract to a new account (`newOwner`). Can only be called by the current owner."
      }
    },
    "version": 1
  },
  "userdoc": {
    "kind": "user",
    "methods": {},
    "version": 1
  }
}